:100000000C942A000C943F000C943F000C943F0089
:100010000C943F000C943F000C943F000C943F0064
:100020000C943F000C943F000C943F000C943F0054
:100030000C943F000C943F000C943F000C943F0044
:100040000C943F000C943F000C943F000C943F0034
:100050000C943F0011241FBECFE5D8E0DEBFCDBF1A
:1000600010E0A0E6B0E0ECEDF3E002C005900D92E8
:10007000A238B107D9F70E94B1000C94EC010C949E
:10008000000095B39E7F95BB82BB85B3846085BB22
:100090008FE99FE00197F1F700C0000085B38B7FE7
:1000A00085BB8FE99FE00197F1F700C0000008953C
:1000B00095B3916095BB82BB85B3846085BB8FE9A6
:1000C0009FE00197F1F700C0000085B38B7F85BBEF
:1000D0008FE99FE00197F1F700C000000895CF93EA
:1000E000DF93EC0103C00E945800219688818111A2
:1000F000FACFDF91CF910895019729F480E8860F18
:100100000E944100089580EC860F0E9441000895EE
:100110008FEF81BB84B3856084BB8FE39CE901973B
:10012000F1F700C0000088E30E9441008CE00E94CB
:10013000410086E00E94410081E00E944100089554
:1001400080E487B986E886B9089597B1907E892BB7
:1001500087B986B1806486B93699FECF84B195B1EE
:100160000895CF93DF93CDB7DEB72A970FB6F894F3
:10017000DEBF0FBECDBF0E9488000E94A0008FEF9F
:1001800087BB18BA60E070E081E090E00E947C00DC
:1001900080E690E00E946F0060E070E082E090E016
:1001A0000E947C008BE690E00E946F002FEF83EDB1
:1001B00090E3215080409040E1F700C0000081E0D2
:1001C0000E94410080E00E94A5009C01A4EFB1E0E4
:1001D0000E94A8012B013C01032E3AE0769467941B
:1001E000579447943A95D1F7302D81E00E94A500AD
:1001F0009C01A4E6B0E00E94A801DC01CB01072E1F
:100200007AE0B695A795979587957A95D1F7702D51
:1002100004E610E0081B190B82E00E94A5009C0177
:10022000A4E6B0E00E94A8016B017C010B2EBAE0AD
:10023000F694E794D794C794BA95D1F7B02DC60138
:100240002FE1421651043CF028B3216028BB28B3AB
:10025000286028BB06C028B32E7F28BB28B3277F81
:1002600028BB0E31110524F428B3226028BB03C03B
:1002700028B32D7F28BB4597CCF088B3846088BB1A
:100280008FEF92E527E0815090402040E1F700C0D9
:10029000000088B38B7F88BB8FEF92E527E0815009
:1002A00090402040E1F700C0000003C088B38B7F7E
:1002B00088BB60E070E081E090E00E947C0082E713
:1002C00090E00E946F004AE0BE016F5F7F4FC20165
:1002D0000E94B701CE0101960E946F0085E790E071
:1002E0000E946F0088E790E00E946F004AE0BE0124
:1002F0006F5F7F4FC6010E94B701CE0101960E9439
:100300006F008BE790E00E946F0060E070E082E099
:1003100090E00E947C008EE790E00E946F004AE02F
:10032000BE016F5F7F4FC8010E94B701CE010196E9
:100330000E946F008BE790E00E946F008FEF92E5C4
:1003400027E0815090402040E1F700C000003ACF04
:10035000A29FB001B39FC001A39F700D811D112406
:10036000911DB29F700D811D1124911D0895BB2711
:100370004A3031F4992322F4BDE2909581959F4F44
:100380000C94C301BB27FB015527AA27880F991F8F
:10039000AA1FA41710F0A41B83955051B9F7A05DB4
:1003A000AA3308F0A95DA193009779F7B111B19331
:1003B0001192CB010C94DC01DC01FC01672F7191DF
:1003C0007723E1F7329704C07C916D93708362913B
:0C03D000AE17BF07C8F30895F894FFCFE4
:1003DC00534D41525420484F4D45005359535445A9
:1003EC004D00543A00432000473A002520004C3A77
:0203FC000000FF
:00000001FF
